:020000040800F2
:10000000082E0020DD0100085B1800086D170008AD
:100010005918000887090008D548000800000000AA
:10002000000000000000000000000000B31F0008F6
:100030005D15000800000000071C0008FD220008F4
:10004000F7010008F7010008F7010008F7010008B0
:10005000F7010008F7010008F7010008F7010008A0
:1000600075150008F701000899150008F701000848
:10007000F7010008F7010008F7010008F701000880
:10008000F7010008F701000881070008F7010008E0
:10009000F7010008F7010008F7010008BD15000886
:1000A000F701000871240008F7010008F7010008B3
:1000B0007D240008F7010008F7010008F701000897
:1000C000F7010008F7010008F7010008F701000830
:1000D000F7010008F7010008F7010008F701000820
:1000E000F7010008F7010008F7010008F701000810
:1000F000F7010008F7010008F7010008F701000800
:10010000F7010008F7010008F7010008F7010008EF
:10011000F7010008F7010008F7010008F7010008DF
:10012000F7010008F7010008F7010008F7010008CF
:10013000F70100080000000000000000F7010008BF
:10014000F7010008F7010008F7010008C91B0008C3
:10015000F7010008F7010008F7010008F70100089F
:10016000F7010008F7010008F7010008F70100088F
:10017000F7010008F7010008F7010008000000007F
:1001800000000000F701000800000000000000006F
:10019000F70100080000000000000000F70100085F
:1001A000000000000000000000000000F70100084F
:1001B000F7010008F7010008F7010008F70100083F
:1001C000F7010008DFF810D000F03AFA00480047C5
:1001D000F55C0008AFF30080082E00200648804739
:1001E00006480047FEE7FEE7FEE7FEE7FEE7FEE71C
:1001F000FEE7FEE7FEE7FEE749230008C501000829
:10020000D2B201E000F8012B491EFBD27047002258
:10021000F6E710B513460A4604461946FFF7F0FF05
:10022000204610BD2DE9FE4F804681EA0300C00F35
:100230000C46009021F0004123F00045B8EB02008D
:10024000A94105D24046214690461C460B4602462F
:1002500023F00040104347D0270DC7F30A00C3F333
:100260000A510290401A019040286BDAC3F3130040
:1002700040F4801B0098924620B10023D2EB030A81
:1002800063EB0B0B01985946C0F14002504600F059
:1002900022F906460D4650465946019A00F02AF9C1
:1002A00010EB08006141002487EA115284EAE773E9
:1002B0001A4340D0009A62B3019A012A4FEA0752CA
:1002C00015DC001B61EB02014FF0004202EA07520D
:1002D000CDE90042001C41F5801132462B4600F06A
:1002E00061F903B0BDE8F08F40462146F9E7001BF5
:1002F00061EB0201001C41F5801300185B412018DE
:10030000A2F5001747EB030140EAD570B6196D411D
:1003100011E06D084FEA360645EAC0754FEA07520C
:10032000001B61EB0201001C41F5801149084FEAF6
:1003300030000019514132462B4603B0BDE8F04F62
:1003400000F021B90098012240000023D0EB020206
:1003500063EBE073009821464FEAE074B8EB0000CD
:1003600061EB0401E9E783F000435BE781F00041C2
:1003700058E72DE9FE4F81EA030404F0004421F020
:10038000004100944FF0000B23F0004350EA0104B9
:100390005ED052EA03045BD0C3F30A54C1F30A559A
:1003A0002C44A4F2F3340194A0FB0254C1F31301D2
:1003B00041F48011C3F3130343F4801301FB02449F
:1003C00000FB034E840A970A44EA815447EA8357A4
:1003D000A4FB076802958D0A05FB07854FEA932C5D
:1003E00004FB0C542705029D4FEA065847EA1637CE
:1003F000B5EB08056EEB070C870E920E47EA8117E6
:1004000042EA8312A7FB0201B6EB0B0164EB000486
:100410002B0D43EA0C335E1844EB1C50DA46514670
:10042000E7FB0201C5F313044FEA0B3343EA14530D
:100430004FEA0432019C43EA0603A4F10C0402943F
:10044000009CCDE900B400F0ADF803B0BDE8F08F3A
:1004500000200146F9E70EB5C10F80EAE0700844BC
:10046000CA07002140F233438DE80E000A460B46CE
:1004700000F098F803B000BD00F0004230F00040FA
:100480000AD0C10D01F56071C0F3160042EA0151B6
:10049000C20840071143704700200146704701F031
:1004A000004330B421F0004150EA010206D00A0DA9
:1004B000A2F56072C1F31301002A02DC30BC0020F7
:1004C0007047440F44EAC104C100E01830BC00EB9F
:1004D000C25000F021B8202A04DB203A00FA02F1D1
:1004E000002070479140C2F1200320FA03F3194322
:1004F00090407047202A06DBCB17203A41FA02F0E1
:1005000043EAE07306E041FA02F3D040C2F1200270
:1005100091400843194670470029A8BF7047401C06
:10052000490008BF20F00100704710B4B0FA80FC09
:1005300000FA0CF050EA010404BF10BC704749B146
:10054000CCF1200421FA04F411FA0CF118BF0121B6
:1005500021430843A3EB0C01CB1D4FEA00614FEA96
:10056000102042BF002010BC704700EBC350104465
:100570000029A4BF10BC7047401C490008BF20F0F0
:10058000010010BC704710B5141E73F1000408DAA6
:10059000401C41F1000192185B411A4301D120F047
:1005A000010010BD2DE9F04D92469B4611B1B1FA04
:1005B00081F202E0B0FA80F220329046FFF78BFF22
:1005C00004460F4640EA0A0041EA0B0153465A46E8
:1005D000084313D0114653EA010019D0C8F1400274
:1005E000504600F03FF805460E46504659464246F2
:1005F000FFF771FF084305D0012004E0204639468B
:10060000BDE8F08D0020054346EAE0762C433743F1
:100610000A986305E40AA0EB08000022FD0A44EAF8
:1006200047540A3002D500200146E9E701051019B8
:100630006941DDE9084500196941BDE8F04DA2E7CF
:10064000064C074D06E0E06840F0010394E807001F
:1006500098471034AC42F6D3FFF7B8FD8C80000801
:10066000AC800008202A04DB203A21FA02F00021A5
:10067000704721FA02F3D040C2F1200291400843B2
:100680001946704770B58C1810F8015B15F0070318
:1006900001D110F8013B2A1106D110F8012B03E01B
:1006A00010F8016B01F8016B5B1EF9D12B0705D423
:1006B0000023521E0DD401F8013BFAE710F8013B6C
:1006C000CB1A921C03E013F8015B01F8015B521E88
:1006D000F9D5A142D8D3002070BDC943016070474D
:1006E000002904D0816841F0010181607047816870
:1006F00021F001018160704710B5074C226807495D
:100700000A40D0E900131943D0E9023003431943EA
:100710001143216010BD000004230140E030FCFFC4
:10072000002904D0816841F480718160704781683C
:1007300021F4807181607047002904D0816841F400
:10074000007181607047816821F400718160704799
:1007500010B501210C02204601F0ACFA2046BDE89C
:100760001040002101F0A6BA826822F470220A43E8
:1007700082607047826822F440120A4382607047A8
:1007800010B51C4C2068400733D51B48017802295E
:1007900002D0012922D026E01849194891ED000A1B
:1007A000D0ED000A30EE200A81ED000ADFED150AD7
:1007B000B5EEC00AF1EE10FA04D230EE200A81ED57
:1007C000000A08E010EE102A0F48824203DD30EEE6
:1007D000600A81ED000A05F0B1FA04E006491C3117
:1007E000081F04F0EBFD2046BDE810400421FFF790
:1007F00074BF10BD0020014010000020B400002094
:10080000B8000020DB0FC940DB0FC94001238B403B
:10081000002A03D0416819434160704741689943F9
:100820004160704730B542680F4B1A400C790B6835
:1008300042EA04221343436083680C4A1340D1E91F
:10084000034222434D798C6844EA450422431A430B
:100850008260C26A22F47002097D491EC9B242EA6E
:100860000151C16230BD0000FFFEFFFCFDF7FFC07B
:1008700070B5072609290AD9C568A1F10A0404EB55
:100880004404A640B543A3401D43C56007E0056985
:1008900001EB4104A640B543A3401D430561836BB2
:1008A000C3F30154121B921C02EB82021F249440DA
:1008B000A34391400B43836370BD826B22F44012CB
:1008C000491E42EA01518163704770B50726092924
:1008D0000AD9C568A1F10A0404EB4404A640B54353
:1008E000A3401D43C56007E0056901EB4104A64034
:1008F000B543A3401D4305611F23072A09D2446B5A
:10090000521E02EB820293409C4391400C4344638D
:1009100070BD0D2A09D2046BD21F02EB82029340F4
:100920009C4391400C43046370BDC46A0D3A02EBD2
:10093000820293409C4391400C43C46270BD816825
:1009400041F0804181607047002101600171417177
:100950008160C160016101210175704710B50446D5
:100960002DED028BB0EE408AB0EE480A03F0F4FFA2
:1009700084ED000AB0EE480A04F02EF884ED010A76
:10098000BDEC028B10BDFEE701B52DED040BB6EEFC
:10099000002A9DED010ADDED020ADDED001A30EEC0
:1009A000201A41EE421AB0EE001A21EE812AF0EE32
:1009B000081AC2EE212AC0ED002A30EE600ADFEDEF
:1009C000060A20EE200A20EE010AC0EE210AC0ED40
:1009D000010A05B000BD0000D7B35D3F10B50C465D
:1009E0002DED028B70EE600A94ED060A94ED001A6C
:1009F00001EE200A94ED041AB4EEC01AF1EE10FADA
:100A000002D280ED001A0BE094ED051AB4EEC01A84
:100A1000F1EE10FA02DD80ED001A01E080ED000A2F
:100A200090ED001A31EE400A94ED031A20EE010A0F
:100A300094ED011A01EE200A10EE100AFFF71CFDDA
:100A40009FED0A1B53EC112BFFF793FC41EC180BA5
:100A5000A069FFF711FD53EC182BFFF7E3FBFFF73D
:100A60001EFDA061BDEC028B10BD00002D431CEBF0
:100A7000E2361A3F70B506460C4604F08000802826
:100A800008D104F07F0000EB800106F58E7000EBCA
:100A9000C10507E004F07F0000EB800106F55D7002
:100AA00000EBC10504F07F00287004F08000C0094D
:100AB00068702946304603F0A8FB002070BD70B571
:100AC00006460C4604F08000802808D104F07F0020
:100AD00000EB800106F58E7000EBC10505E004EB2C
:100AE000840106F55D7000EBC1050020A87004F0DC
:100AF0007F002870C4F3C01068702946304603F0A8
:100B00005CFB002070BD2DE9F04106460D46904685
:100B10001F4605F08000802808D105F07F0000EB1B
:100B2000800106F58E7000EBC10407E005F07F0040
:100B300000EB800106F55D7000EBC10405F07F005D
:100B4000207005F08000C0096070C4F80880E7706C
:100B5000607808B12078E080022F01D10020207158
:100B60002146304603F0DDFA0020BDE8F0812DE992
:100B7000F04105460E461746984606F07F0000EB0A
:100B8000800105F55D7000EBC104E760C4F81480D6
:100B90000020A061607006F07F002070E8780128D6
:100BA00000D12761207820B92146284603F0DDF9DD
:100BB00003E02146284603F0A7FB0020BDE8F081B2
:100BC00008B500220092009A61F30A1200920269AD
:100BD0001268009B1A4303691A6008BD70B5064687
:100BE0000C4604F08000802808D104F07F0000EB60
:100BF000800106F58E7000EBC10505E004EB840171
:100C000006F55D7000EBC1050120A87004F07F00BF
:100C10002870C4F3C01068702946304603F042FBC8
:100C2000002070BD2DE9F04107460D461646984656
:100C300005F07F0000EB800107F58E7000EBC1042A
:100C40000120607005F07F002070E66026610020C2
:100C5000A061C4F81480207820B92146384603F0FA
:100C600084F903E02146384603F04EFB0020BDE83E
:100C7000F081000030B587B00546594C284603F096
:100C80003AF901A801F024F8029CE868C0680590D0
:100C9000059820F4705005900598E968C8602846CA
:100CA00003F0FAFC03280BD10020A8704FF4007069
:100CB000A880059820F4705000F5105005907EE053
:100CC0000120A8704020A8804648844209D34648A5
:100CD000844206D2059820F4705000F560500590CB
:100CE0006DE04148844209D34048844206D20598C9
:100CF00020F4705000F55050059060E03B4884426D
:100D000009D33B48844206D2059820F4705000F580
:100D10004050059053E03648844209D33548844218
:100D200006D2059820F4705000F53050059046E04A
:100D30003048844209D33048844206D2059820F4D2
:100D4000705000F52050059039E02B48844209D3BB
:100D50002A48844206D2059820F4705000F51050BD
:100D600005902CE02548844209D32548844206D2C8
:100D7000059820F4705000F5005005901FE02048C1
:100D8000844209D31F48844206D2059820F470504B
:100D900000F5E050059012E01A48844209D31A4841
:100DA000844206D2059820F4705000F5C05005909A
:100DB00005E0059820F4705000F5A05005900598C6
:100DC000E968C86000200690069820F4005000F5FD
:100DD000005006900698E9684861012007B030BDD0
:100DE000007A030AC0E1E4000024F400E0EC04010E
:100DF00000C31801002D310140A44C0100366E01E2
:100E000040E2950180C3C90160600B02F8B5054658
:100E1000002400200090284603F07FFC064681E075
:100E200006F0010000287BD0E1B2284600F0F6FA77
:100E30000090009800F0010030B3012000FA04F7A0
:100E40002869406BB84329694863002000900098E6
:100E500020F00100401C009005F1180050F824001B
:100E600000998160E1B232480068426828469047A4
:100E7000E878012808D13CB940F21110405D0428FF
:100E800002D1284603F01CF90098C0F3C00060B1FD
:100E900000200090009820F008000830009005F134
:100EA000180050F82400009981600098C0F30010E9
:100EB00060B100200090009820F0100010300090E9
:100EC00005F1180050F82400009981600098C0F3E3
:100ED000801060B100200090009820F04000403069
:100EE000009005F1180050F82400009981600098E6
:100EF000C0F3400060B100200090009820F0020094
:100F0000801C009005F1180050F8240000998160C1
:100F10000098C0F3C01018B12146284600F092FA9C
:100F2000641C7608002E7FF47BAF0120F8BD000022
:100F3000FC0400207CB504460025002001902046DA
:100F400003F0F3FB06466FE006F00100002869D0CD
:100F5000E9B2204603F0F1FB0190019800F0010096
:100F6000C8B300200190019820F00100401C0190BE
:100F700004F1540050F8250001998160E0780128BF
:100F800017D104F1540050F825000069009005EBDA
:100F9000850104F55D7000EBC10080680099C1F324
:100FA0001201411A05EB850204F55D7000EBC200E9
:100FB0008161E9B21E480068026820469047E078E7
:100FC000012808D13DB940F21110005D052802D179
:100FD000204603F075F80198C0F3400060B100208E
:100FE0000190019820F00200801C019004F154004F
:100FF00050F82500019981600198C0F3C00088B1C4
:101000000B480068816820468847002001900198BD
:1010100020F008000830019004F1540050F8250039
:10102000019981606D1C7608002E8DD101207CBD58
:10103000FC0400203EB50446A07A78B1D4F80C0137
:1010400000680090009820F002000090009820F0C6
:10105000010000900099D4F80C010160002001907B
:10106000019820F00100401C01902069406801991E
:10107000884321694860094800688169204688479B
:1010800000200290029820F0004000F10040029001
:101090000298E168486101203EBD0000FC04002088
:1010A0007CB5044600200190019820F0100010301B
:1010B0000190E068806901998843E1688861E0688F
:1010C000006A0090009800F00F0000EB800104F52A
:1010D0005D7000EBC1050098C0F3434007282DD296
:1010E000DFE800F02C04051D1E2C1F0027E00098EF
:1010F000C0F30A1090B10098C0F30A122046E968C4
:1011000003F025FBE8680099C1F30A110844E86080
:10111000A8690099C1F30A110844A8610FE00EE024
:101120000DE0082204F2CC51204603F010FBA86920
:101130000099C1F30A110844A86100E000BF00BF94
:10114000E068806901990843E168886101207CBDFD
:1011500038B5044608480068C16820468847002022
:101160000090009820F00800083000900098E16896
:101170004861012038BD0000FC0400201FB5044672
:10118000002000904FF48970005D009023480068B3
:1011900041692046884720698068019000200390BB
:1011A000039820F4006000F5006003900398E16864
:1011B0004861A07A70B3019800F0010050B340F28A
:1011C0001510005D012825D19DF80000032821D1CC
:1011D00000200290029820F00100401C0290D4F8F8
:1011E0000C01006802990843D4F80C1108600298B9
:1011F00020F00200801C0290D4F80C0100680299D3
:101200000843D4F80C1108600548006840F0060057
:1012100003490860012004B010BD0000FC04002058
:1012200010ED00E030B587B0044600200290069033
:101230000590049003900190029820F00100401C5A
:101240000290206940680299884321694860002122
:10125000204603F0F7F900250BE0FF2104F1180008
:1012600050F82500816004F1540050F82500816099
:101270006D1C6078A842F0D84FF0FF312069816181
:1012800006986FF30F00401C0690069880B200F598
:101290008030069006992069C161059820F0080009
:1012A00008300590059820F00100401C0590059835
:1012B00020F00200801C0590059920694161049886
:1012C00020F00100401C0490049820F00800083031
:1012D0000490049820F00200801C04900499206976
:1012E0000161206900680390039820F4FE60039078
:1012F000039920690160204602F0E2FE002001907F
:10130000019820F4805000F5805001900198E16828
:10131000486104480068016920468847012007B0F9
:1013200030BD0000FC0400202DE9F04106460F46C8
:101330003946304603F020FA01214FF48970815577
:101340000021801C8155002511E005EB850106F583
:101350008E7000EBC104012060702570E5800020D4
:10136000E0704020A0600020E06060616D1C70783B
:10137000A842EAD8002510E005EB850106F55D706E
:1013800000EBC104002060702570E580E070402013
:10139000A0600020E06060616D1C7078A842EBD80E
:1013A000304602F097FD0021304603F04DFA3046FA
:1013B00002F0C0FB304602F04FFC304603F00AF961
:1013C000BDE8F08138B50446002000900748006869
:1013D000C16920468847009820F4801000F58010ED
:1013E00000900098E1684861012038BDFC040020AD
:1013F00038B504460020009007480068016A20467E
:101400008847009820F4001000F500100090009824
:10141000E1684861012038BDFC04002030B5024677
:1014200015692B6915696C6B24FA01F505F0010546
:1014300043EAC51302F1180555F82150AD6805EAD5
:10144000030030BD2DE9F84306460F460025002075
:10145000009007EB870106F58E7000EBC104D4E91C
:101460000501451AA068A84200D2A568E81C4FEA09
:10147000900806F1180050F827008069009029E0D4
:10148000D4E90501451AA068A84200D2A568E81C65
:101490004FEA9008ABB2FAB23046E16803F0FBF9CC
:1014A000E0682844E060A0692844A06106F11800C3
:1014B00050F8270080690090D4E90501884209D1DD
:1014C0002178012000FA01F93069406B20EA090017
:1014D00031694863009880B2404506D9D4E90510C7
:1014E000884202D260690028CAD10120BDE8F88391
:1014F000002904D0016841F00101016070470168D2
:1015000021F001010160704730B50368124A1340B1
:10151000CC680A682243D1E905452C432243CC69B3
:1015200022430C6A22434C6A22438C6A22434C6B4E
:1015300022438C6B22431A430260426922F0070364
:10154000D1E90B2422431A4342610A6942604A6886
:1015500082608968C16030BD3F801CF07047000028
:1015600001B503480099016001680029FCD108BD5C
:101570002C03002010B5042000F038F8002807D014
:10158000044901208870BDE81040042000F028B80C
:1015900010BD00002803002010B5102000F026F830
:1015A000002807D0044901200870BDE81040102031
:1015B00000F016B810BD00002803002010B5202050
:1015C00000F014F8002807D0044901204870BDE855
:1015D0001040202000F004B810BD000028030020B7
:1015E0000149086070470000143C0140014600209A
:1015F000024A12680A4200D001207047143C0140A0
:1016000030B51B4A83790168002B2AD013688B43BD
:101610001360111D0B680468A3430B60017911442A
:101620000B68046823430B60114C0834216803687D
:1016300099432160231D19680568A9431960417900
:10164000102905D011440A68006802430A6030BDC1
:10165000216802681143216019680068014319601C
:1016600030BD0079104402688A43026030BD00003A
:10167000003C01402DE9F041002201274FF0030C0E
:1016800007FA02F50B682B40AB422CD106685300D9
:101690000CFA03F4A64306600E79D0F800809E4051
:1016A00046EA080606600E79012E01D0022E12D1FC
:1016B0008668A64386604E79D0F808809E4046EA48
:1016C000080686604668AE43466045688E79964057
:1016D000B6B235434560C568A543C560CC799C402A
:1016E000C3681C43C460521C102AC9D3BDE8F081F2
:1016F00010B54B07DB0E9A40C90800EB8100016A68
:101700000F249C40A1430162016A1143016210BD94
:101710000246002012690A4200D00120704741832E
:101720007047018370474FF6FF710160002101711E
:1017300041718171C171704770B50A480468001D1C
:101740000568001D0668344454B108220649204645
:1017500000F00DF8042204491031284600F007F883
:1017600070BD0000107AFF1F3E050020FEE730B577
:101770000B46002100BF16E00A24B4EB107F05D908
:10178000302404EB107403F8114005E0412404EB0D
:1017900010740A3C03F81140000100254C00641C41
:1017A0001D554C1CE1B29142E6DB30BD034890ED83
:1017B000030A80ED070A81ED000A7047C00000208F
:1017C00007489FED060A80ED060ADFED060AC0ED28
:1017D000010A80ED030AC0ED040A70470AD7233CD2
:1017E000C000002017B7D13A194990ED000A81EDE9
:1017F000000AD1ED040AC1ED010A60EE201AB7EE2D
:10180000001A20EE802A01EE801AC2EE011AC1ED04
:10181000051A21EE801AB0EE602A01EE602A81EDF1
:10182000022A91ED031A81ED061AD0ED010AC1EDED
:10183000080ADFED082A20EE220A40EE410A01EEF6
:10184000A01A81ED071A81ED031A81ED042A704771
:10185000C0000020A4707D3FFEE7704730B50F2325
:10186000C27801250178002A1FD0154A126802F4B7
:10187000E062C2F5E062C2F30722C2F10404D34081
:101880004278A24084781C401443220101F1E021F7
:1018900081F80024007800F01F018D40400980008D
:1018A00000F1E020C0F8005130BD01F01F0085407C
:1018B0004809800000F1E020C0F8805130BD0000F0
:1018C0000CED00E00249084302490860704700003F
:1018D0000000FA050CED00E02DE9F041144F4FF443
:1018E000005631463846FFF71AFF002505F1B000D3
:1018F000C0B200F049F9022000F046F9102000F0D3
:1019000043F931463846FFF70CFF0024002000F071
:101910003BF9641CE4B2802CF8D331463846FFF71B
:10192000FEFE6D1CEDB2082DE0D3BDE8F081000095
:101930000008024070B53A4D4FF4807421462846A5
:10194000FFF7EFFE21462846FFF7E9FE0A20FFF7E2
:1019500007FE21462846FFF7E4FEAE2000F014F90A
:10196000022000F011F9102000F00EF9402000F0E4
:101970000BF9812000F008F9FF2000F005F9A12003
:1019800000F002F9C82000F0FFF8A62000F0FCF8F3
:10199000A82000F0F9F83F2000F0F6F8D32000F07E
:1019A000F3F8002000F0F0F8D52000F0EDF88020EA
:1019B00000F0EAF8D92000F0E7F8F12000F0E4F8B0
:1019C000DA2000F0E1F8122000F0DEF8DB2000F071
:1019D000DBF8402000F0D8F8202000F0D5F80220F5
:1019E00000F0D2F88D2000F0CFF8142000F0CCF8F1
:1019F000A42000F0C9F8A62000F0C6F8AF2000F03F
:101A0000C3F8FFF769FF074901200870064A002163
:101A10001170064A1170064908700649087070BDB9
:101A2000000802404003002041030020350300204D
:101A3000420300204303002010B50446B031C8B271
:101A400000F0A2F8A41CC4F3031040F0100000F052
:101A50009BF804F00F00BDE8104000F095B80000BE
:101A60002DE9F04780460F460024203AD5B2B8F160
:101A70007F0F02D9A046BF1CFFB239464046FFF790
:101A8000DBFFDFF860A04FF4005949465046FFF7EE
:101A900048FE154E04EB0510305C00F075F8641C30
:101AA000E4B2082CF6D349465046FFF738FE7F1CB7
:101AB000F9B24046FFF7C0FF49465046FFF731FEF6
:101AC000002404EB05103044007A00F05DF8641C3B
:101AD000E4B2082CF5D349465046BDE8F047FFF77D
:101AE0001EBE0000000802409C7A00082DE9F04765
:101AF000804608988A4691461D46002600244708DD
:101B00001CE0281B401EC1B20A2004F041FCB9FBB6
:101B1000F0F00A21B0FBF1F201FB120326B9681EB6
:101B2000844201DA73B1012607FB04803033DAB254
:101B3000C0B25146FFF794FF641CE4B2AC42E0D35C
:101B4000BDE8F08707FB0480C0B220225146FFF7B2
:101B500087FFF1E72DE9F04104460E4617460025C0
:101B60000CE031462046FFF77BFF0834E4B2782CC6
:101B700002D90024B61CF6B26D1CEDB27A5D002AC3
:101B8000EFD1BDE8F081000070B5054600240D4E90
:101B900008213046FFF7C3FD280604D52021304632
:101BA000FFF7BFFD03E020213046FFF7B8FD6806D0
:101BB000050E08213046FFF7B4FD641CE4B2082C82
:101BC000E6D370BD00040240014801F07BBB000079
:101BD000580B002001B52DED040B9DED000ADDED45
:101BE000020A9DED011ADDED031A20EE202A01EE16
:101BF000212A80ED002A61EE200A40EE610AC0ED44
:101C0000010A05B000BD70470649012804D00868E4
:101C100020F0006008607047086840F000600860CD
:101C20007047000094380240054A002903D011682B
:101C300001431160704711688143116070470000D3
:101C400030380240054A002903D011680143116071
:101C500070471168814311607047000034380240BA
:101C6000054A002903D011680143116070471168CB
:101C7000814311607047000040380240054A002946
:101C800003D01168014311607047116881431160EE
:101C90007047000020380240054A002903D011682F
:101CA0000143116070471168814311607047000063
:101CB00044380240054A002903D0116801431160ED
:101CC000704711688143116070470000243802405A
:101CD00070B5334C216801F00C01324B002921D042
:101CE0005D10042920D0221F08291FD00C293AD0CA
:101CF0000360216801F0F00109092B4A535C016877
:101D0000D9404160236803F4E0539B0AD35C21FA75
:101D100003F38360236803F460435B0BD25CD14020
:101D2000C16070BD0360E4E70560E2E71168C1F3DC
:101D30008056116801F03F0136B1B5FBF1F113682F
:101D4000C3F38813594305E0B3FBF1F11368C3F300
:101D5000881359431268C2F30142521C5200B1FB6E
:101D6000F2F10160C5E71168C1F38056116801F016
:101D70003F0136B1B5FBF1F11368C3F38813594342
:101D800005E0B3FBF1F11368C3F3881359431268FC
:101D9000C2F30272521C5200B1FBF2F10160A8E7DB
:101DA000083802400024F4000000002001490867C0
:101DB000704700000000474240EA81104FF0FF31B9
:101DC00001EB520140EA0140024940EA0360086029
:101DD0007047000088380240044890ED060A81ED03
:101DE000000A90ED090A81ED010A7047E800002021
:101DF00011489FED101A80ED001ADFED101AC0EDAA
:101E0000011A9FED0F0A80ED020ADFED0E0AC0ED08
:101E1000030AC0ED040A80ED050A80ED061AC0ED44
:101E2000091A80ED070AC0ED080AC0ED0A0A80ED24
:101E30000B0A7047CDCC4C3DE80000200AD7233C6C
:101E400017B7D13A000000004B4990ED000A81ED30
:101E50000C0AD0ED010AC1ED0D0AD0ED026AC1ED08
:101E60001A6A91ED071A81ED021AD1ED081AC1ED37
:101E7000031A91ED0A2A81ED042AD1ED0B2AC1ED56
:101E8000052A20EE013A60EE213AB7EE004A00EE54
:101E9000823A40EEA23A23EE003A03EEA03A33EE45
:101EA000043AC4EE033A21EE003A01EEA03A23EEE2
:101EB000233A81ED0E3A22EE004A02EEA04A64EE89
:101EC000233AC1ED0F3A23EE004A81ED164A63EE44
:101ED000204AC1ED174A23EE805A81ED185A63EE6D
:101EE000A05AC1ED195A24EE016A04EE826A31EE5D
:101EF000466A81ED106A24EE214A04EEA24A31EED0
:101F0000C44A81ED114A25EE011A05EE821A72EEDD
:101F1000414AC1ED124A25EE211A05EEA21A32EE0F
:101F2000C12A81ED132A91ED061A81ED001AD1ED37
:101F3000091AC1ED011A60EE012A9FED100A60EE48
:101F4000A10A62EE802A40EE802A36EEE20A03EE13
:101F5000001A81ED141A43EE801AC1ED151A81EDB5
:101F6000061AC1ED091A81ED076A81ED084AC1ED33
:101F70000A4A81ED0B2A7047E800002077BE7F3FB8
:101F800001B52DED040B9DED020ADDED000A9DED7E
:101F9000031ADDED011A20EE202A01EE612A80ED00
:101FA000002A61EE200A40EE210AC0ED010A05B0C8
:101FB00000BD70472DED040B00209FED6C2AF0EE64
:101FC000422AB0EE423A9DED010AB5EEC00AF1EEAA
:101FD00010FA00DD0120DDED000A9FED654AF0EE0C
:101FE000403AF6EE006A50EE843A63EEA63AF5EE19
:101FF000C03AF1EE10FA00DD801CDFED5E3A10EE23
:10200000A30A20EE260AB5EEC00AF1EE10FA00DDB2
:10201000001DDDED000ABFEE086A60EE863ADFEDD6
:10202000564AB7EE087A9DED010A20EE874A40EE47
:10203000243A00EE244ADFED4F4A60EE244A64EE73
:10204000A15ADFED4E4A60EE244AB0EE645A40EEEB
:10205000C64A9FED476A00EEC75AC1EE810A20EEDC
:10206000060A062820EE216A1DD2DFE800F01C03D4
:10207000080D121720EEA30A60EE840A17E020EE86
:10208000840AC5EE810A12E020EEA40AC6EE010A17
:102090000DE085EE810A60EEA30A08E086EE010AF3
:1020A00060EE850A03E020EE850A60EEA40A30EEB9
:1020B000201AB4EEE11AF1EE10FA09DDC0EE013A91
:1020C000B0EE630AB0EE601A70EE203AC1EE230A59
:1020D00030EE201A31EEC11AF5EE001A21EE211A67
:1020E000F0EE411A40EE261AB0EE610AF0EE401A08
:1020F00040EEA61AF0EE610A07282ED2DFE800F0C3
:102100002D040B1219202700B0EE402AF0EE412AD0
:10211000B0EE603A21E0B0EE412AF0EE602AB0EE77
:10212000403A1AE0B0EE412AF0EE402AB0EE603AB2
:1021300013E0B0EE602AF0EE402AB0EE413A0CE037
:10214000B0EE602AF0EE412AB0EE403A05E0B0EE83
:10215000402AF0EE602AB0EE413A094880ED002AAC
:10216000C0ED012A80ED023A04B070470000000083
:10217000D7B3DD3FD7B3DDBFD7B35D3FD7B35DBFC7
:102180005006002010B58A07120F0F23934021F04C
:1021900003040649214401F608010C689C430C60C5
:1021A0000B68904003430B6010BD000000300140FD
:1021B0001CB50021019100912E4A106840F4803036
:1021C00010604FF4A043106800F4003000900198B4
:1021D000401C0190009810B901989842F3D1106802
:1021E000800302D50120009000E0009100980128B2
:1021F0003FD120484030016841F0805101601E49C4
:10220000086840F4404008601A48083003680360DA
:10221000036843F400430360036843F4A05303607E
:10222000041F164B2360136843F080731360136818
:102230009B01FCD50A6842F480320A604A68D203E6
:10224000FCD50A6842F400320A604A689203FCD561
:102250000B4A40F205711160016821F00301016031
:10226000016841F0020101600168C1F381010229A6
:10227000FAD11CBD0038024000700040085A407777
:10228000003C02409FED1B1A50EE010A91ED060A38
:1022900091ED001A30EE200A20EE010A91ED041AA9
:1022A000B4EEC01AF1EE10FA02D280ED001A0BE083
:1022B00091ED051AB4EEC01AF1EE10FA02DD80EDD0
:1022C000001A01E080ED000A90ED001A31EE400A9C
:1022D00091ED031A20EE010A91ED011A01EE200A98
:1022E000D1ED060A9FED041A40EE010AC1ED060A7F
:1022F00070470000DB0FC9406F12833A10B50F4AD8
:102300000C490D48D2ED000A0D4A92ED000AFFF784
:10231000B9FF0C4C6088401C80B260800A2807D14D
:1023200002F098FB03F088FC00F01AFC00206080AB
:1023300010BD0000BC060020700100206C010020D0
:1023400068010020E400002010B51248016841F443
:10235000700101601048016841F0010101600E4AFE
:1023600000210832116002680C4B1A400260031D04
:102370000B4A1A60026822F48022026006480C3080
:102380000160FFF715FF03494FF0006080390860D6
:1023900010BD000088ED00E000380240FFFFF6FEAF
:1023A0001030002470B5048C24F001040484058BE3
:1023B000048C25F0F3054FF6FF7606EA031313436A
:1023C0002B4324F00A020A4342F0010103830184F3
:1023D00070BD70B5048C24F010040484058B068C49
:1023E0004FF6FF7404EA011125F4734504EA033340
:1023F0002B4304EA02221A4326F0A0030B4343F0C6
:1024000010010283018470BDF0B5048C24F4807443
:102410000484868B058C4FF6FF7707EA012426F0AB
:10242000F30607EA03111143314325F420622243E6
:1024300042F4807281830284F0BD70B5048C24F470
:1024400080540484858B068C4FF6FF7404EA0131B6
:1024500025F4734504EA02222A4304EA03331343B2
:1024600026F420420A4342F480518383018470BDE4
:102470000121014800F0A9B80000014070B5022117
:102480004D07284600F096F9012871D1284600F042
:102490008FF900EE100AB8EE400ADFED360A364C2E
:1024A00080EE801A84ED021ADFED340A80EE801A85
:1024B00084ED031A29153248FFF72AF92070314EAE
:1024C00002213046FFF724F9217841EA40002070CC
:1024D00001213046FFF71CF9217841EA8000C1B2A2
:1024E000217005290AD004290DD0062910D002290F
:1024F00013D0032916D0012919D01CE09FED220A20
:1025000084ED010A17E09FED210A84ED010A12E033
:102510009FED1F0A84ED010A0DE09FED1E0A84ED78
:10252000010A08E09FED1C0A84ED010A03E09FED1B
:102530001B0A84ED010A94ED010ADFED190AB5EEDC
:10254000C00AF1EE10FA04D230EE200A84ED010A3E
:1025500008E010EE100A1349884203DD30EE600AED
:1025600084ED010A2846BDE87040022100F02DB834
:1025700070BD00001D431346B0000020C0E1644B55
:102580000004024000000240920A863F920A064080
:10259000DB0F4940920A8640368DA740DC0FC940C8
:1025A000DB0FC940DB0FC94010B50A884B88CC88C7
:1025B0001A438B8823431A430B891A434B89898911
:1025C0001A430A43A0F8442010BDC9430182704752
:1025D000002904D0018841F0010101807047018881
:1025E00021F0010101807047002905D030F8441F17
:1025F00041F400410180704730F8441FC1F30E01DF
:102600000180704710B55D49884209D10121084613
:10261000FFF750FB0021BDE810400120FFF74ABB47
:10262000B0F1804F0CD05649884213D101210220CD
:10263000FFF724FB0021BDE810400220FFF71EBB7E
:1026400001210846FFF71AFB0021BDE810400120D8
:10265000FFF714BB4B49884209D101210420FFF741
:102660000DFB0021BDE810400420FFF707BB4649E1
:10267000884209D101210820FFF700FB0021BDE8B5
:1026800010400820FFF7FABA4049884209D10121D9
:102690001020FFF7F3FA0021BDE810401020FFF7EB
:1026A000EDBA3B49884209D101212020FFF7E6FA23
:1026B0000021BDE810402020FFF7E0BA35498842EC
:1026C00009D101210220FFF7F5FA0021BDE81040F1
:1026D0000220FFF7EFBA304988420AD101210C04E9
:1026E0002046FFF7E7FA2046BDE810400021FFF73B
:1026F000E1BA2A4988420AD101214C042046FFF759
:10270000D9FA2046BDE810400021FFF7D3BA24498A
:1027100088420AD101218C042046FFF7CBFA2046DB
:10272000BDE810400021FFF7C5BA1E49884209D113
:1027300001214020FFF7A2FA0021BDE8104040200F
:10274000FFF79CBA1849884209D101218020FFF780
:1027500095FA0021BDE810408020FFF78FBA134999
:1027600088420AD1841501212046FFF787FA2046C6
:10277000BDE810400021FFF781BA10BD0000014004
:102780000004004000080040000C00400010004021
:10279000001400400004014000400140004401409A
:1027A0000048014000180040001C0040002000408C
:1027B000406B704702460020128A0A4200D0012076
:1027C000704770B506460C4625886188A288238923
:1027D000002D0CD0042D13D0082D1AD03046FFF751
:1027E0002CFEE1883046BDE8704000F064B9304608
:1027F000FFF7D8FDE1883046BDE8704000F03FB9F2
:102800003046FFF7E6FDE1883046BDE8704000F055
:102810003EB93046FFF7F8FDE1883046BDE870402C
:1028200000F041B900210180418001228280C180F5
:1028300001817047002A03D082890A438281704750
:1028400082898A4382817047018921F007010181D1
:102850007047000030B5028C22F001020284058C22
:102860008388028B22F0700222F003020C8814434A
:1028700025F002028D8915434A882A430D4DA8424E
:1028800002D00D4DA8420FD122F00805CA892A4373
:1028900022F004058A882A4323F4807323F400730A
:1028A0000D8A1D434B8A2B438380048389684163CF
:1028B000028430BD000001400004014070B5028C6C
:1028C00022F010020284028C8388048B24F4E044FA
:1028D00024F440760D884FF6FF7404EA052535434D
:1028E00022F020028E8904EA061616434A8804EA7A
:1028F00002123243114EB04202D0114EB04217D1F3
:1029000022F08002CE8904EA0616164326F040061D
:102910008A8804EA0212324323F4806323F40063BA
:102920000E8A04EA86061E434B8A04EA8303334375
:102930008380058389688163028470BD0000014043
:102940000004014070B5028C22F480720284028C73
:102950008388848B24F0700424F003040D882543BD
:1029600022F400728E894FF6FF7404EA062616439D
:102970004A8804EA02223243114EB04202D0114E7C
:10298000B04217D122F40066CA8904EA0222324317
:1029900022F480668A8804EA0222324323F48053B8
:1029A00023F400530E8A04EA06161E434B8A04EAF7
:1029B00003133343838085838968C163028470BDB8
:1029C000000001400004014070B5028C22F48052E6
:1029D0000284058C8288838B23F4E04323F44076C1
:1029E0000C884FF6FF7303EA0424344325F40055A2
:1029F0008E8903EA06362E434D8803EA05353543B2
:102A0000084EB04202D0084EB04205D122F48046B2
:102A10000A8A03EA821232438280848389680164CD
:102A2000058470BD000001400004014000210180C8
:102A30004180818081608181C181018241827047B2
:102A4000018582827047002904D0818841F080018D
:102A500081807047818821F08001818070470289E0
:102A600022F070020A4302817047028922F00702B5
:102A7000028102890A430281704741627047028BDA
:102A800022F00C020283028B0A4302837047028BFE
:102A900022F440620283028B4FF6FF7303EA0121A6
:102AA0000A4302837047828B22F00C028283828B5E
:102AB0000A4382837047828B22F440628283828B36
:102AC0004FF6FF7303EA01210A4382837047000037
:102AD00030B50288164C174DA0420DD0A8420BD03D
:102AE000B0F1804F08D0144B984205D0134B984258
:102AF00002D0134B984203D122F070034A881A4344
:102B0000104B984206D0104B984203D022F44073E9
:102B10000A891A4302804A68C2620A880285A04272
:102B200001D0A84201D1897A01860121818230BD7C
:102B30000000014000040140000400400008004083
:102B4000000C004000100040001400404FF0FF3126
:102B50004160002101800181418081727047000045
:102B600003480168002902D00168491E01607047CE
:102B70002C030020002904D0818941F40051818177
:102B80007047818921F400518181704710B5374920
:102B9000884209D101211020FFF78CF80021BDE8FF
:102BA00010401020FFF786B8314988420AD1012130
:102BB0004C042046FFF762F82046BDE81040002193
:102BC000FFF75CB82B4988420AD101218C042046CA
:102BD000FFF754F82046BDE810400021FFF74EB83B
:102BE000254988420AD10121CC042046FFF746F846
:102BF0002046BDE810400021FFF740B81F49884239
:102C00000AD101210C052046FFF738F82046BDE81F
:102C100010400021FFF732B81949884209D101213B
:102C20002020FFF747F80021BDE810402020FFF7E3
:102C300041B8144988420AD101218C072046FFF788
:102C40001DF82046BDE810400021FFF717B80E49D7
:102C500088420AD1440501212046FFF70FF820469B
:102C6000BDE810400021FFF709B810BD0010014079
:102C70000044004000480040004C0040005000402C
:102C80000014014000780040007C00400246002013
:102C900012880A4200D00120704700007FB5044628
:102CA0000D46208A20F44051E88808432082A089FC
:102CB00041F20C618843A9882A8911436A89024339
:102CC0001143A181A08A20F44071A8890843A08201
:102CD0006846FEF7FDFF1E48844202D01D4884422C
:102CE00001D1039800E00298A189090408D500EBFE
:102CF000C00101EB001029684900B0FBF1F007E0CA
:102D000000EBC00101EB001029688900B0FBF1F075
:102D10006422B0FBF2F109010B096FF018056B4357
:102D200000EB8300A3891D044FF0320307D503EBAA
:102D3000C000B0FBF2F000F00700084306E003EB30
:102D40000010B0FBF2F000F00F00084320817FBDBF
:102D50000010014000140140C1F308018180704758
:102D600070B504460D46D4F8E4052946426820466D
:102D70009047002070BD70B504460D464FF4897031
:102D8000005D022802D0032812D100E000BF68884D
:102D900001280CD100214FF48C700151D4F8E405C6
:102DA0002946826820469047204600F075F804E0E6
:102DB0002946204600F021F800BF00BF70BD2DE974
:102DC000F04106460C46154600272B4622460021B8
:102DD0003046FDF7CCFE3846BDE8F0812DE9F041E4
:102DE00006460C46154600272B4622460021304653
:102DF000FDF718FF3846BDE8F08170B504460D4672
:102E000080212046FDF7EAFE00212046FDF7E6FE80
:102E1000204601F055F970BD2DE9F04104460E46FB
:102E200015460027C4F89453C4F89053032140F288
:102E3000111001552B46324600212046FDF797FE22
:102E40003846BDE8F08170B504460025052140F202
:102E50001110015500231A4619462046FDF787FE3A
:102E6000204601F02DF9284670BD2DE9F0410446B9
:102E70000E4615460027C4F83C51C4F838510221CB
:102E800040F2111001552B46324600212046FDF735
:102E9000C9FE3846BDE8F08170B50446002504211E
:102EA00040F21110015500231A4619462046FDF73D
:102EB000B9FE204601F004F9284670BD70B50546FC
:102EC0000E46002E5DD105F58E7440F21110405D66
:102ED000022849D1A168E069884217D9A168E06950
:102EE000401AE061E878012803D1D4E902100844CF
:102EF000E060A08B82B22846E168FFF76FFF0023F5
:102F00001A4619462846FDF732FE2DE0A168206AD0
:102F1000B0FBF1F201FB1200A8B9A168206A884257
:102F200011D3D4E9080188420DD200221146284667
:102F3000FFF754FF0020606200231A461946284616
:102F4000FDF715FE10E0D5F8E405C06848B14FF470
:102F50008970405D032804D1D5F8E405C16828468E
:102F600088472846FFF76FFF4FF48B70405D0128BC
:102F700016D1284600F062FA00214FF48B704155BB
:102F80000EE0D5F8E405406950B14FF48970405D1A
:102F9000032805D1D5F8E405314642692846904713
:102FA000002070BD70B505460E46A6BB05F55D74E4
:102FB00040F21110405D03283DD1A168E0698842CC
:102FC00017D9A168E069401AE061E878012803D1C7
:102FD000D4E902100844E060A368E069984201D295
:102FE000E06900E0A06882B22846E168FFF7E7FEEA
:102FF00021E0D5F8E405006948B14FF48970405DDF
:10300000032804D1D5F8E4050169284688472846F5
:10301000FFF742FF0FE0FFE7D5F8E405806950B104
:103020004FF48970405D032805D1D5F8E405314699
:10303000826928469047002070BD014600207047F5
:1030400070B504460D46E888012804D0294620467C
:10305000FFF7D3FE1AE04FF48970005D022802D01A
:1030600003280DD105E0012209492046FFF7FDFEA6
:103070000BE0012204F588712046FFF7F6FE04E01C
:1030800029462046FFF7B9FE00BF00BF70BD000013
:1030900078050020F8B504460E46F0880090708848
:1030A0000012082862D2DFE800F061040C186161A8
:1030B000575CA078D4F8EC150A6869469047054635
:1030C00059E0A078D4F8E4158A6A69469047054625
:1030D00002216970C4F8F0554DE0B078062834D26A
:1030E000DFE800F0030B131B232BA078D4F8EC15BA
:1030F0004A686946904705462CE0A078D4F8EC155C
:103100008A6869469047054624E0A078D4F8EC1513
:10311000CA686946904705461CE0A078D4F8EC15CB
:103120000A6969469047054614E0A078D4F8EC1582
:103130004A696946904705460CE0A078D4F8EC153A
:103140008A6969469047054604E031462046FFF704
:1031500054FEF8BD00BF0EE031462046FFF74DFE9D
:10316000F7E731462046FFF748FEF2E731462046B2
:10317000FFF743FEEDE700BFBDF8000088B1F0881F
:1031800078B1F088BDF80010884202DDBDF800007B
:1031900000E0F0880090BDF8002029462046FFF7A7
:1031A00064FE00BFD5E70146002002E0421CD0B219
:1031B000491C0A78002AF9D17047000070B504460E
:1031C0000D464FF48970005D022802D0032813D108
:1031D00000E000BF01200C4908604FF48C700059DA
:1031E00020B10846006840F002000860022206494B
:1031F0002046FFF73AFE04E029462046FFF7FDFD92
:1032000000BF00BF70BD00007C0500202DE9F0412B
:1032100004460D4617460026FCB12046FFF7C3FFC3
:10322000022101EB400038803A783046711CCEB262
:103230002A5403223046711CCEB22A540AE014F8F4
:10324000012B3046711CCEB22A5400223046711C2C
:10325000CEB22A5420780028F1D1BDE8F0812DE9C2
:10326000F04104460F4615461E46DDF818802046FC
:1032700000F008FC2046FFF7E0FEC4F8E465C4F85F
:10328000E885C4F8EC5539462046FEF74DF8D4F8E9
:10329000E81508688047204600F0F2FBBDE8F081A1
:1032A00010B50446D4F8E405016A2046884700209A
:1032B00010BD10B50446D4F8E405416A204688479D
:1032C000002010BD7CB505460024284601F012FA06
:1032D000002865D0284601F018FA0190019808B935
:1032E00000207CBD0198C0F3C04018B12846FDF70E
:1032F00021FE04430198C0F3804018B12846FDF731
:1033000085FD04430198C0F3400050B100200090B7
:10331000009820F00200801C00900098E968486145
:1033200000BF0198C00F18B12846FDF783FE044383
:103330000198C0F3C02018B12846FDF71FFF0443D1
:103340000198C0F3C00018B12846FDF701FF0443FF
:103350000198C0F3001018B12846FDF7A1FE044300
:103360000198C0F3003018B12846FDF75BFF044315
:103370000198C0F3403018B12846FDF77BFC0443A8
:103380000198C0F3005018B12846FEF71BF804431B
:103390000198C0F3405018B12846FEF729F80443BD
:1033A00020469EE790F8CC250A7090F8CD254A700B
:1033B00090F8CE3590F8CF2503EB02224A8090F8A2
:1033C000D03590F8D12503EB02228A8090F8D235CF
:1033D00090F8D32503EB0222CA80CB884FF4A07269
:1033E0001350012340F211121354704710B50446D4
:1033F0000023402219462046FDF785FB002340228A
:1034000080212046FDF77FFB01214FF48970015593
:10341000A078D4F8E82551688847002010BD10B581
:103420000446D4F8E8150869804740F21310015D9E
:10343000401E015503210155002010BD01460348DF
:10344000026808694260002070470000CC04002038
:1034500010B50446D4F8E405C06920B1D4F8E405F9
:10346000C16920468847002010BD70B504460D464E
:10347000A88818BBE88808BBA87800F07F064FF43E
:103480008970005D032804D129462046FFF7B5FC6A
:1034900018E04FF48A70065531462046FDF790FB40
:1034A0002046FFF7F9FC26B102214FF4897001553F
:1034B00008E001214FF48970015503E029462046B8
:1034C000FFF79BFC70BD70B504460D46D4F8E405CB
:1034D0002946026820469047D4F8E8158868804756
:1034E000002070BD70B504460D46A87830490870BC
:1034F00008460078012804DD29462046FFF77DFCB8
:1035000055E04FF48970005D022802D0032848D1AD
:1035100017E02748007880B12548007884F810012A
:1035200003214FF489700155214801782046FFF7A7
:10353000CAFF2046FFF7B0FC02E02046FFF7ACFCD4
:1035400034E01B48007880B902214FF4897001559E
:103550001748007884F81001154801782046FFF7D5
:10356000FFFB2046FFF798FC1AE094F81001104981
:103570000978884211D094F810112046FFF7F0FB2B
:103580000B48007884F81001094801782046FFF7BD
:103590009AFF2046FFF780FC02E02046FFF77CFC04
:1035A00004E029462046FFF728FC00BF00BF70BD9D
:1035B00080050020F8B504460D46002668880128DD
:1035C0000DD101214FF48C700151D4F8E405294646
:1035D0008268204690472046FFF75EFC3FE06888FF
:1035E00002283CD12879D0BB206940680090A88887
:1035F0000612062E22D2DFE806F02103090F151B62
:10360000009820F07000103000901DE0009820F02D
:1036100070002030009017E0009820F070003030EB
:10362000009011E0009820F07000403000900BE016
:10363000009820F070005030009005E0009820F0D5
:1036400070001030009000BF00BF05480099016075
:1036500001214FF48B7001552046FFF71DFCF8BD8A
:10366000CC0400201CB5044669462046FFF79AFEAC
:103670009DF8000000F01F0020B1012807D00228AB
:103680000FD109E06946204600F016F811E06946BE
:10369000204600F007F90CE06946204600F046F8A5
:1036A00007E09DF8000000F080012046FDF796FA43
:1036B00000BF00BF00201CBD70B505460C460026AB
:1036C00060780A2829D2DFE800F01923281E280A8A
:1036D0000528140F21462846FFF7DCFC22E021468E
:1036E0002846FFF7C2FE1DE021462846FFF7FAFEF6
:1036F00018E021462846FFF7A3FC13E021462846A0
:10370000FFF75CFD0EE021462846FFF753FF09E076
:1037100021462846FFF72FFB04E021462846FFF705
:103720006CFB00BF00BF304670BD00002DE9F041CA
:1037300005460E4600273479307800F060002028D6
:1037400008D1D5F8E40531468268284690473846C6
:10375000BDE8F0817078002857D001282BD00328CD
:1037600075D14FF48970405D022802D003281BD127
:1037700007E02CB1802C03D021462846FDF72EFA15
:1037800017E0708830B92CB1802C03D02146284630
:10379000FDF724FAD5F8E4053146826828469047BB
:1037A0002846FFF779FB04E031462846FFF725FB62
:1037B00000BF00BF70E04FF48970405D022802D066
:1037C00003281BD107E02CB1802C03D021462846CA
:1037D000FDF704FA17E0708878B95CB1802C09D045
:1037E00021462846FDF76BF9D5F8E4053146826895
:1037F000284690472846FFF74FFB04E0314628460D
:10380000FFF7FBFA00BF00BF46E04FF48970405D50
:10381000022802D0032837D107E02CB1802C03D036
:1038200021462846FDF7DAF933E004F080008028CD
:1038300012D104F07F0000EB800105F58E7000EBE3
:10384000C100807820B101201549086016E022E00F
:1038500000201349086011E004F0800070B904EB07
:10386000840105F55D7000EBC100807818B101207E
:103870000B49086002E0002009490860022208495B
:103880002846FFF7F2FA04E031462846FFF7B5FA7A
:1038900000BF00BF00E000BF00BF384658E700008F
:1038A0007405002070B504460D4600264FF489705B
:1038B000005D032814D1287901280CDCD4F8E40534
:1038C0002946826820469047E88840B93EB920469C
:1038D000FFF7E2FA03E029462046FFF78EFA04E0FC
:1038E00029462046FFF789FA00BF00BF304670BD69
:1038F00010B504464FF48970015D401C0155042148
:10390000401E0155D4F8E815C8688047002010BD56
:1039100070B505460C462DB92246064906A0FFF7AC
:1039200075FC04E02246034903A0FFF76FFC014841
:1039300070BD00000829002056435020436F6E667A
:1039400069670000704770470246122008800148EE
:10395000704700001C050020704710B1012802D1FB
:1039600000E001E000E000BF00BF70477047704713
:103970007047000070B505460C462DB92246064931
:1039800006A0FFF743FC04E02246034903A0FFF72B
:103990003DFC014870BD000008290020564350201E
:1039A000496E74657266616365000000024604201A
:1039B00008800148704700003805002070B50546B2
:1039C0000C462246024903A0FFF720FC004870BDC8
:1039D0000829002053544D6963726F656C656374E8
:1039E000726F6E696373000070B505460C462DB9A1
:1039F0002246064906A0FFF709FC04E022460349D7
:103A00000CA0FFF703FC014870BD0000082900204E
:103A100053544D3332205669727475616C20436F74
:103A20006D506F727420696E204853206D6F64650D
:103A30000000000053544D33322056697274756192
:103A40006C20436F6D506F727420696E2046532056
:103A50004D6F64650000000070B505460C461A20E5
:103A60002080FDF769FE014870BD00003C05002084
:103A70000246432008800148704700007804002077
:103A8000704700001CB5044601210320FEF7CCF866
:103A90004FF4C050009003208DF8050002208DF8EF
:103AA000040000208DF806008DF8070069461648CE
:103AB000FDF7E0FD0A220B211348FDF719FE0A224B
:103AC0000C211148FDF714FE4FF4805000900320A4
:103AD0008DF8050001208DF8040000208DF8060007
:103AE0008DF8070069460948FDF7C4FD4FF4805181
:103AF0000648FDF716FE01218803FEF7CDF80121E7
:103B00008020FEF79FF81CBD000002400004024028
:103B100000B503464FF47A7103FB01F000F001F8A1
:103B200000BD00EB4002910000BF4A1E111E00D1F3
:103B30007047FAE77FB50446002500200390029005
:103B40000190207A012835D1E068806B02900298BC
:103B500020F4803002900298E1688863002003908E
:103B6000E068C0680390039820F040000390039839
:103B700020F480000390039820F400300390039811
:103B800020F4002003900398E168C860204600F00C
:103B900069F9E07801282FD1019820F01E000A3041
:103BA0000190019820F02000203001900198E168F8
:103BB000886021E0E068C0680390039820F040002E
:103BC000403003900398E168C860204600F04AF94D
:103BD00000200290029820F4803000F5803002909E
:103BE000029820F4001000F5001002900298E1689D
:103BF00088631420FFF78CFFE07801280FD1E0687C
:103C000080680190019820F01E000A300190019810
:103C100020F02000203001900198E1688860E06881
:103C2000C0680390039820F4807003902069406876
:103C30000090009820F002000090009920694160F7
:103C40002069406800900398E168C860204600F051
:103C50005AFC284604B070BD70B588B004460026F2
:103C60000020079006900590049003900021D4F85E
:103C70000C010160206900680690069820F4C0508D
:103C80000690069920690160E07A01283DD1032160
:103C9000204600F023FD8020E1684862059880B24C
:103CA00000F58000059005986FF30F0080300590B7
:103CB0000598E1688862059800EB1041049861F36B
:103CC0000F000490049880B200F50000049004985E
:103CD000E168C1F80401049800EB104161F30F00A2
:103CE0000490049880B204900499E068C0F8081128
:103CF000049800EB104161F30F000490049880B227
:103D000004900499E068C0F80C111021204600F0DE
:103D100099FC204600F070FC0021206901612069B7
:103D20004161491E2069816100212069C16100252E
:103D30002CE004F1180050F825000068079007985F
:103D4000C00F70B100200790079820F0804000F16C
:103D500080400790079820F0006000F10060079015
:103D600001E00020079004F1180050F825000799A1
:103D70000160002104F1180050F825000161FF21C5
:103D800004F1180050F8250081606D1C6078A8428D
:103D9000CFD800252CE004F1540050F8250000682D
:103DA00001900198C00F70B100200190019820F09F
:103DB000804000F180400190019820F0006000F107
:103DC0000060019001E00020019004F1540050F8DF
:103DD000250001990160002104F1540050F82500EC
:103DE0000161FF2104F1540050F8250081606D1C31
:103DF0006078A842CFD800200390039820F4807008
:103E000000F5807003902069006903998843084396
:103E100021690861E07801281DD1002002900298F4
:103E200020F00100401C0290029820F00200801C4B
:103E300002904021029861F38A000290029820F4D7
:103E4000803000F580300290029861F35940029072
:103E5000029920690163204600F06FFB304608B0EC
:103E600070BD0000F8B50446002600250020009033
:103E700000BF0320FFF755FEE06800690090681C52
:103E800005461349884201D90020F8BD0098C00FAB
:103E90000028EED00025009820F00100401C009082
:103EA0000098E168086100BFE06800690090681C44
:103EB00005460749884200D904E0009800F0010057
:103EC0000028F1D100BF0320FFF72BFE3046DCE7CE
:103ED000400D030008B50146002000220092009A20
:103EE00022F00102521C0092CA689268009B9A4319
:103EF000CB689A6008BD0EB50146002000220092F2
:103F00000A69926802928A6912680192029AC2F35F
:103F1000410232B1012A05D0022A09D0032A0DD16B
:103F200001E000BF00BF019A6FF30A0201920AE0AC
:103F3000019A6FF30A02D21C019204E0019A6FF316
:103F40000A02019200BF00BF019B8A691360009AB8
:103F500022F4807202F5807200920A695268009B16
:103F60009A431A430B695A600EBDFCB50246002005
:103F700000240025019500954D78012D52D19369BB
:103F80001D6801951D6900954D6955B9009D25F085
:103F90007F050095009D25F4002505F50025009579
:103FA00016E08E684D69B54207D98D684D610E7A6D
:103FB000009D66F30605009504E00E7D009D66F306
:103FC00006050095009D25F4002505F500250095C2
:103FD000009D1D61D578012D06D10F7802F11805DD
:103FE00055F827500E696E61019D25F0806505F139
:103FF00080650195019D25F0004505F1004501957D
:10400000019D1D60D578002D59D14D69002D56D0E8
:104010000E780125B5402C4315696D6B2543166953
:1040200075634CE00E7802F1540555F826502D6862
:1040300001950E7802F1540555F826502D6900952A
:104040004D695DB90E7A009D66F306050095009DE9
:1040500025F4002505F5002500950CE08D684D61DF
:104060000E7A009D66F306050095009D25F4002557
:1040700005F5002500950F7802F1540555F82750F5
:10408000009E2E61D578012D06D10F7802F15405DE
:1040900055F827500E696E61019D25F0806505F188
:1040A00080650195019D25F0004505F100450195CC
:1040B0000F7802F1540555F82750019E2E60FCBD83
:1040C0000CB500210191019921F0C04101F1C041DD
:1040D0000191019921F4002101F50021019101993B
:1040E00021F07F0118310191019A416D0A61C17877
:1040F000012915D10021009100F2CC51426D51618E
:10410000416D09680091009921F0004101F10041E1
:1041100000914FF080210091009A416D0A6000BF2C
:104120000CBD3CB5024600200024019400944C785C
:10413000012C0CD10D7802F1180454F825300D78BB
:104140000124AC40009D64F30F0500950BE00D7851
:1041500002F1540454F825300D780124AC40009D40
:1041600064F31F4500951C680194019CC4F3C0349E
:10417000E4B90D89019C65F30A040194CD78019C92
:1041800065F3934401948D79019C65F399540194EE
:10419000019C24F0805404F180540194019C24F487
:1041A000004404F500440194019C1C601469E46916
:1041B000009D2C431569EC613CBD38B503460020D9
:1041C000002400944C78012C05D10D7803F11804DB
:1041D00054F8252004E00D7803F1540454F8252008
:1041E00014680094009C24F400140094CC78032CF0
:1041F00002D0CC78022C05D1009C24F0805404F12C
:1042000080540094009C146038BD3CB502460020E8
:104210004B78012B22D10C7802F1180353F824308B
:104220001B680193019BDB0F73B100230193019B7A
:1042300023F0804303F180430193019B23F000634B
:1042400003F10063019301E0002301930D7802F173
:10425000180353F82530019C1C6022E00C7802F111
:10426000540353F824301B680093009BDB0F73B199
:1042700000230093009B23F0804303F180430093CD
:10428000009B23F0006303F10063009301E000232F
:1042900000930D7802F1540353F82530009C1C6004
:1042A00000BF3CBD38B503460A46002000240094F8
:1042B0005478012C18D1157803F1180454F82510FE
:1042C0000C680094009CE40F2CB1009C24F0804406
:1042D00004F180440094009C24F4001404F50014BC
:1042E0000094009C0C600EE0157803F1540454F81F
:1042F00025100C680094009C24F4001404F50014AC
:104300000094009C0C6038BDFEB505460C460026A6
:104310000027002002900190607801287ED121784A
:1043200005F1180050F8210000680290217805F18D
:10433000180050F8210000690190606948B901989F
:104340006FF3120001900121019861F3DC400190AC
:1043500017E06169019861F3120001906069401EE5
:10436000A1680844B0FBF1F1019861F3DC400190D1
:10437000E078012805D1019820F0C04000F10050FC
:104380000190227805F1180050F82200019901618E
:10439000E878012807D1227805F1180050F82200AA
:1043A000216941610DE0E07801280AD0606940B1DF
:1043B0002178012000FA01F72869406B3843296908
:1043C0004863E078012813D128698068009000983C
:1043D000C0F3002030B9029820F0005000F10050E6
:1043E000029005E0029820F0805000F18050029089
:1043F000029820F0806000F180600290029820F026
:10440000004000F100400290227805F1180050F8B9
:10441000220002990160E078012800E008E070D1F4
:10442000A08A83B222782846E16800F034FA68E076
:10443000217805F1540050F821000068029021789D
:1044400005F1540050F8210000690190606950B9ED
:10445000A168019861F3120001900121019861F3B4
:10446000DC40019017E0A068401E61690844A16823
:10447000B0FBF1F1019861F3DC4001900198C0F3C9
:10448000C940A1684843019960F312010191019864
:10449000C0F312006061227805F1540050F8220048
:1044A00001990161E878012806D1227805F15400CC
:1044B00050F8220021694161E07801280ED160792D
:1044C00030B1029820F0005000F10050029005E059
:1044D000029820F0805000F180500290029820F065
:1044E000806000F180600290029820F0004000F1AE
:1044F00000400290227805F1540050F82200029901
:1045000001603046FEBD08B500210091491EC26819
:1045100051606FF08041C2685161009921F0004103
:1045200001F100410091009921F4006101F5006161
:1045300000910099C268916108BD38B50446002514
:1045400000200090E16888616FF08040E168486178
:104550002046FFF7D8FFE07820B9009820F010003F
:1045600010300090009820F4006000F5006000908A
:10457000009820F4805000F580500090009820F4BE
:10458000005000F500500090009820F4802000F5C5
:1045900080200090009820F4002000F5002000907A
:1045A000009820F0080008300090009820F4801057
:1045B00000F580100090009820F4001000F5001025
:1045C0000090E0688069009988430843E168886149
:1045D000284638BD08B50146002000220092009A06
:1045E00022F00102521C0092CA689268009B1A4392
:1045F000CB689A6008BD0000F8B504460025002687
:1046000000200090009820F01000103000900098DA
:10461000E168086100BFE06800690090701C064610
:104620000749884200D904E00098C0F30010002830
:10463000F1D100BF0320FFF774FA2846F8BD00004F
:10464000400D0300F8B504460D4600260027002063
:104650000090009820F0200020300090009865F332
:104660008A1000900098E168086100BFE068006966
:104670000090781C07460749884200D904E000985A
:10468000C0F340100028F1D100BF0320FFF749FA22
:104690003046F8BD400D030008B5014600200A6908
:1046A00092680092009AC2F3410232B1012A06D008
:1046B000022A07D0032A07D102E0032006E000BF48
:1046C000022003E0012001E0022000BF00BF08BD7E
:1046D0000146C868406900F00100704708B50269EA
:1046E00012680092009A61F301020092009B026935
:1046F000136008BD00B502461046FFF7E9FF012828
:1047000001D0012000BD0020FCE701460020CA685E
:104710005069CA6892691040704701460869826909
:104720000869C069024090B2704701460869826911
:104730000869C0690240100C7047024602F1540338
:1047400053F82130986813695B6918407047F0B5D9
:1047500003460024D01CC71700EB9777BD10D3F891
:10476000D06000BF03E030680860091D641CAC42E3
:10477000F9D30846F0BD000070B502460C46002390
:1047800000200025D5700125957040259580012CCD
:104790000CD14FF0A0430125D572082515700425D2
:1047A00055709D15D580022515720AE04CB9254B30
:1047B0000025D5720C251570062555704FF4A0659F
:1047C000D580D36003F500651561002110E003F585
:1047D000106505EB411602F1180545F8216003F557
:1047E000306505EB411602F1540545F82160491C7E
:1047F00055788D42EBD803F5806555614035C2F898
:10480000CC50002108E003F5A06505EB411602F14C
:10481000900545F82160491C15788D42F3D8002198
:1048200008E003F5805505EB013602F1D00545F8A7
:104830002160491C15788D42F3D803F56065C2F8F4
:104840000C5170BD00000440F8B504460D4600262A
:10485000E068C0680090009820F000500090009838
:1048600020F080400090012D06D1009820F00050EB
:1048700000F10050009006E02DB9009820F0804033
:1048800000F1804000900098E168C8603220FFF796
:104890003FF93046F8BD2DE9F04104464FF0000CD9
:1048A00000270025E07890B9D81C4FEAE07800EBAB
:1048B00098784FEAA80704F1D00050F8226000BFB2
:1048C00003E008683060091D6D1CBD42F9D36046E5
:1048D000BDE8F081FEE700000146024801600020CB
:1048E0007047000074030020012002490860002086
:1048F00070470000BC04002070B506460C46154603
:10490000002004490860ABB2224601213046FCF782
:104910002EF970BDC004002070B506460C46154641
:104920000020044908602B46224681213046FCF7CE
:1049300079F970BDBC04002002E008C8121F08C14C
:10494000002AFAD170477047002001E001C1121F10
:10495000002AFBD1704700009FED1C1AF5EE000AFB
:1049600040EE010ABDEEE00A10EE100AF5EEC00AB4
:10497000F1EE10FA00D2401E00EE100AB8EEC00AA6
:1049800030EEC00ADFED120A20EE200AFCEEC00A6B
:1049900010EE900AC0F3080000EE900AF8EE600AEC
:1049A00070EE600A0B4901EB800292ED000A401C98
:1049B00001EB800090ED001AF7EE001A71EEE01A9C
:1049C00021EE800A00EE810A7047000083F9223E42
:1049D0000000004498720008DFED1B0A60EE200A18
:1049E000BDEEE01A11EE100AB5EEC00AF1EE10FAB3
:1049F00000D2401E00EE100AB8EEC00A30EEC00A27
:104A0000DFED120A20EE200AFCEEC00A10EE900A3A
:104A1000C0F3080000EE900AF8EE600A70EE600A3B
:104A20000B4901EB800292ED000A401C01EB800073
:104A300090ED001AF7EE001A71EEE01A21EE800AEE
:104A400000EE810A7047000083F9223E0000004416
:104A50009872000810B58448026884498448FFF7BA
:104A60004BFF0020834908607F480068002871D010
:104A70007E48007855286ED17C4840785528FAD178
:104A80007A4880780B2867D2DFE800F0DC06DC404B
:104A9000DC595FB8BDCAD700552077490870487007
:104AA0000220887075480068000EC870734800685E
:104AB000000C087171480088000A48716F4800783E
:104AC00088716E484068000EC8716C484068000CE0
:104AD00008726A488088000A4872684800798872BB
:104AE00066488068000EC87264488068000C0873CD
:104AF00062480089000A48736048007A8873AA20D7
:104B0000C873087411205B4908609CE0574800791D
:104B10005B4908805548C078098841EA0020584917
:104B200008800846008842F2107191FBF0F0554968
:104B300008800120544908705449087083E000201F
:104B400051490870514908707DE04848C0780B28E9
:104B500051D202E07BE077E074E0DFE800F04C0641
:104B60000D141B222930373E45004049091D484895
:104B7000006800F00BFA3FE03C49091D4548006819
:104B800000F004FA38E03949091D4348006800F094
:104B9000FDF931E03549091D4048006800F0F6F99B
:104BA0002AE03249091D3E48006800F0EFF923E091
:104BB0002E49091D3B48006800F0E8F91CE02B492C
:104BC000091D3948006800F0E1F915E02749091D81
:104BD0003648006800F0DAF90EE02449091D34482F
:104BE000006800F0D3F907E02049091D314800684A
:104BF00000F0CCF900E000BF00BF24E001202E4906
:104C0000096808701FE02D48006890ED000AF1EE79
:104C1000040A30EE200A2948006880ED000A12E0FC
:104C20002648006890ED000AF1EE040A30EE600AB2
:104C30002248006880ED000A05E000201E4909684E
:104C4000087000E000BF00BF002007490860094865
:104C5000006840B10748026807490548FFF75CFE55
:104C600000200449086010BD740300204C1100208E
:104C7000580B0020780300208C110020FC28002015
:104C80007C0300207E0300204103002080030020DD
:104C90001004002014040020180400201C0400202C
:104CA0002004002024040020280400202C040020DC
:104CB00030040020340400203C040020380400208C
:104CC00008B5084800F05AFB0748084B084A01217C
:104CD00000900848FEF7C3FA4FF480510648FCF7ED
:104CE0001EFD08BDFC280020580500204C040020B3
:104CF00000050020580B00200004024030B587B0AA
:104D000001210846FCF790FF01214804FCF7A8FFA9
:104D1000184D072202212846FCF7EAFC072203214E
:104D20002846FCF7E5FC0C24019402218DF80810BC
:104D30008DF8091001A92846FCF79CFC0E4D284669
:104D4000FDF724FF0D4803900021ADF81010ADF8D9
:104D50001210ADF81410ADF81810ADF8164003A9F4
:104D60002846FDF79BFF01212846FDF703FF07B00A
:104D700030BD0000000002400044004080841E005E
:104D800070B56420FCF7ECFB40F291352946022017
:104D900000F0BAF80921032000F0B6F8002000F076
:104DA00045F8164C2080012000F040F86080022079
:104DB00000F03CF8A080032000F038F8E080642088
:104DC000FCF7CEFB2946022000F09EF809210320C3
:104DD00000F09AF8002000F029F82080012000F06F
:104DE00025F86080022000F021F8A080032000F068
:104DF0001DF8E0800120A11E087070BD5600002043
:104E000010B504210648FCF783FC012807D04FF4B5
:104E100000710448FCF783FC03490120087010BDB1
:104E2000000C024000040240340300202DE9F05F32
:104E3000002400F003004FF6FF7909EAC02040F497
:104E40000046DFF8BCB04FF4004A51465846FCF724
:104E500066FC00252B4F4FF4806841463846FCF72E
:104E600060FC300405D54FF480513846FCF759FCFE
:104E700004E04FF480513846FCF751FC09EA46063D
:104E800041463846FCF74BFC6D1CEDB2102DE4D3C7
:104E900051465846FCF745FC002651465846FCF75B
:104EA0003EFC002541463846FCF73BFC300405D566
:104EB0004FF480513846FCF734FC04E04FF4805145
:104EC0003846FCF72CFC09EA460609EA4404414648
:104ED0003846FCF724FC4FF400613846FCF718FC18
:104EE000012801D144F001046D1CEDB2102DD9D37D
:104EF00051465846FCF715FC2046BDE8F09F0000DF
:104F000000000240000802402DE9F05F00F00300BD
:104F10004FF6FF7808EAC0240C43DFF868B04FF47E
:104F2000004949465846FCF7FAFB0025164E4FF457
:104F3000805A4FF4806739463046FCF7F2FB200474
:104F400004D551463046FCF7ECFB03E051463046B1
:104F5000FCF7E5FB39463046FCF7E1FB08EA440480
:104F60006D1CEDB2102DE6D339463046FCF7D7FB69
:104F700051463046FCF7D3FB49465846BDE8F05F42
:104F8000FCF7CFBB000002400008024008B50A78D9
:104F90008DF803204A788DF802208A788DF8012058
:104FA000CA788DF800209DED000A80ED000A08BD4A
:104FB0000A2824D2DFE800F005080B0E1114171A96
:104FC0001D20104A11601BE00F4A116018E00F4AC3
:104FD000116015E00E4A116012E00E4A11600FE0F8
:104FE0000D4A11600CE00D4A116009E00C4A116095
:104FF00006E00C4A116003E00B4A116000E000BFBC
:1050000000BF704710040020140400201804002082
:105010001C04002020040020240400202804002078
:105020002C04002030040020340400200A2824D25C
:10503000DFE800F005080B0E1114171A1D20104AA6
:1050400011601BE00F4A116018E00F4A116015E073
:105050000E4A116012E00E4A11600FE00D4A116015
:105060000CE00D4A116009E00C4A116006E00C4AA0
:10507000116003E00B4A116000E000BF00BF704701
:10508000B4030020B8030020BC030020C0030020AC
:10509000C4030020C8030020CC030020D00300205C
:1050A000D4030020D8030020062816D2DFE800F041
:1050B0000306090C0F120A4A11600FE0094A116039
:1050C0000CE0094A116009E0084A116006E0084A4C
:1050D000116003E0074A116000E000BF00BF7047A5
:1050E000880300208C0300209003002094030020FC
:1050F000980300209C03002000B589B0354836494C
:1051000090ED030A81ED000A90ED000A81ED010A9D
:1051100090ED010A81ED030A90ED040A81ED040A85
:1051200090ED020A81ED050A9FED2C0A81ED060A39
:10513000D0ED080A1C31C1ED000AD0ED050AC1ED21
:10514000010AD0ED060AC1ED030AD0ED090AC1ED4E
:10515000040AD0ED070AC1ED050A81ED060A01F047
:10516000EBFA1D48D43801F02FFB1B48B438FCF78C
:1051700027FB1948AC38FCF73BFE20216846FBF7BB
:1051800046F81549D43900206A4602EBC00393ED76
:10519000000B01EBC00383ED000B401C0428F4DB83
:1051A00000220692079200200B499DED060BD43990
:1051B00081ED080B401C0128FADB069207920020C3
:1051C0009DED060B81ED0A0B401C0128FADB09B0AE
:1051D00000BD0000600000208406002000000000E8
:1051E0002DE9FE4F634D05F1580095ED040A80ED61
:1051F000000AD5ED050AC0ED010A95ED061A80ED0D
:10520000021A5D48FBF7C0FB5B4895ED030A1030BE
:10521000FBF7A4FB58481830A0F14006D6ED0F1A52
:1052200096ED0E1AD6ED0B0A96ED0A0AFCF7D2FCA3
:1052300006F1400995ED000AD9ED000A05F1640177
:1052400006F14800FBF7CAFB06F14808D9ED010A50
:1052500095ED010A05F1800108F10400FBF7BEFBA2
:1052600006F13000D6ED0F1A96ED0E1AD6ED130AA0
:1052700096ED120AFCF784FE06F13000A5F17004E9
:1052800090ED000A84ED0C0A90ED010A84ED0D0A00
:10529000083890ED000A84ED0E0A90ED010A84EDC5
:1052A0000F0A95ED090A84ED100A95ED0A0A84EDBE
:1052B000110A95ED0B0A84ED120A224602F1AC01A7
:1052C000A1F17C000746029101F05EFA99ED010A16
:1052D00084ED130AD5ED020AC4ED140A98ED011A03
:1052E00084ED151A20EE600A84ED160A98ED000A86
:1052F00084ED170A04F1200202F14801A1F1100027
:10530000884681460192FCF751FA04F1280202F125
:105310003801A1F114008A4683460092FCF75CFD37
:10532000D5ED081A95ED071AD6ED0D0A96ED0C0A83
:10533000FCF740FE22463846029901F0A9FA4146A0
:105340004846019AFCF750FA51465846009AFCF735
:105350007BFD94ED1A0A04F1A00080ED070A94ED9C
:10536000180A80ED080A94ED190A80ED090ABDE8D3
:10537000FE8F0000200600208800002010B50446A3
:105380000020FCF713FD0223042260211046FCF7E5
:1053900013FD0120FCF70AFD0120FCF735FC06484F
:1053A000006820600448001D006860600248083002
:1053B0000068A06010BD0000107AFF1F70B50F4C90
:1053C00002686378802B0AD20D4D2E6C3244026045
:1053D00008686A6C104408605B1C637070BDD20979
:1053E00002600868C009086000206070002105485C
:1053F000FDF7FAF80220207070BD000010000020B8
:1054000000200140000001402DE9F04FB5B001A897
:10541000FCF75EFC01210620FCF706FC01210520BB
:10542000FCF702FC01210620FCF7FEFB01210846E7
:10543000FCF7FAFB01210220FCF7F6FB0121032017
:10544000FCF7F2FB01210220FCF7EEFB0121082012
:10545000FCF7EAFB01210420FCF7E6FB0121052013
:10546000FCF7E2FB01210320FCF7DEFB0121042015
:10547000FCF7DAFB01210846FCF70EFC4FF48078BC
:1054800001214046FCF708FC01218803FCF704FCDD
:1054900001210846FCF7E4FB01210420FCF7E0FBB6
:1054A00001218805FCF7C0FB02994FF47A70B1FB2B
:1054B000F0F0401E0F2700244FF0FF39B0F1807F3D
:1054C00008D24FF0E0214861FE4AF02010708C6154
:1054D0000720086133A8FCF726F901253395022639
:1054E0008DF8D0608DF8D16033A9F748FCF7C2F889
:1054F00033A8FCF718F933968DF8D0608DF8D16099
:1055000033A9F148FCF7B6F833A8FCF70CF9A80268
:1055100033908DF8D0608DF8D16033A9EB48FCF75B
:10552000A9F801220021E848FCF7E2F8012211461F
:10553000E548FCF7DDF801220A21E448FCF7D8F839
:105540004FF0804A5046FDF75DF808A8FDF7FEFAD7
:10555000CDF82490ADF8284008A95046FDF7B8FAD8
:1055600005A8FDF75FF9ADF814400A20ADF8160064
:10557000ADF81C7005A95046FDF723F90122002162
:105580005046FDF75DFA5046FDF75EF901215046A1
:10559000FDF759FA50215046FDF761FA04215046B3
:1055A000FDF763FA41F65F615046FDF70EF8012200
:1055B00002215046FDF73EF900215046FDF75DFA05
:1055C00001215046FDF704F88DF8D0408DF8D34006
:1055D00003208DF8D1000427339733A9BC48FCF78A
:1055E00049F88DF8D05003208DF8D1008DF8D240C5
:1055F0008DF8D3504FF4007ACDF8CCA033A9B3483E
:10560000FCF738F88DF8D05003208DF8D1008DF8D4
:10561000D2408DF8D360A802339033A9AD48FCF78F
:1056200029F82803339033A9AA48FCF723F88DF80A
:10563000D3504FF4004BCDF8CCB033A9A248FCF7BF
:1056400019F88DF8D250E802339033A9A148FCF73D
:1056500011F851469D48FCF764F859469A48FCF702
:1056600060F8E9029B48FCF75CF8A9029948FCF74E
:1056700056F829039748FCF752F88DF8D0500320CC
:105680008DF8D1008DF8D2408DF8D3504FF0080935
:10569000CDF8CC9033A98D48FBF7ECFF2020339058
:1056A00033A98A48FBF7E6FF6803339033A989489A
:1056B000FBF7E0FFCDF8CC8033A98648FBF7DAFF93
:1056C00041468448FCF72BF8CDF8CCA033A981489B
:1056D000FBF7D0FF8DF8D06003208DF8D1008DF856
:1056E000D2408DF8D340CDF8CC8033A97648FBF773
:1056F000C1FF6803339033A97448FBF7BBFFCDF8B3
:10570000CCA033A97048FBF7B5FFA803339033A9A9
:105710006E48FBF7AFFFA802339033A96A48FBF746
:10572000A9FFCDF8CCB033A96848FBF7A3FF01224D
:1057300008216548FBF7DCFF01220D216348FBF7D8
:10574000D7FF012209216048FBF7D2FF01220E2179
:105750005E48FBF7CDFF01220A215B48FBF7C8FF3B
:1057600001220F215948FBF7C3FFDFF86CA1504617
:10577000FCF748FF30A8FDF7E9F9ADF8C04020205C
:10578000ADF8C20042F228303190ADF8C8408DF833
:10579000CA4030A95046FDF79BF92BA8FDF746F902
:1057A0006020ADF8AC00ADF8AE50ADF8B07041F28D
:1057B000941BCDF8B4B0ADF8B840ADF8BA40ADF830
:1057C000BC80ADF8BE402BA95046FDF743F82BA98D
:1057D0005046FDF773F82BA95046FDF7B3F860204B
:1057E000ADF8AC00ADF8AE50ADF8B04042F22830A4
:1057F0002D90ADF8B840ADF8BA90ADF8BC40ADF81A
:10580000BE402BA95046FDF7DFF8E802ADF89C003A
:105810004010ADF89E00ADF8A080ADF8A240ADF804
:10582000A440ADF8A640ADF8A84027A95046FCF723
:10583000BBFE01215046FCF7CBFECAF834B0CAF8D3
:1058400038B0CAF83CB042F22730CAF8400017948A
:1058500022481890224819901A941B971C94A80269
:105860001D9040001E9080001F90CDF880800001A8
:105870002190229423952494259417A91948FBF785
:1058800043FE01211748FBF733FE33A8FBF74BFF1C
:1058900003208DF8D0008DF8D100339533A90D4841
:1058A000FBF7E8FE339633A90A48FBF7E3FE33978C
:1058B00033A90848FBF7DEFE4020339033A90248A5
:1058C00012E0000023ED00E000000240000402406E
:1058D000000C024000080240000001404C20014042
:1058E000A405002010640240FBF7C4FECDF8CC9064
:1058F00033A98248FBF7BEFE339633A98048FBF7F5
:10590000B9FE339533A97E48FBF7B4FE802033906F
:1059100033A97C48FBF7AEFEFAF71AFF11A8FBF794
:1059200013F88DF849508DF848501494139411943D
:1059300015948DF858700D9428040E900F941094BF
:105940000DA8FAF7D9FE11A96F48FAF76BFF0421E9
:105950006D48FAF7B2FF00216B48FAF705FF2905F9
:105960006948FAF707FF01231A460A216648FAF741
:105970007FFF012302220B216348FAF779FF0123FD
:1059800003220C216048FAF773FF01230422062149
:105990005D48FAF76DFF01231A4609215A48FAF7C4
:1059A00094FF0123022208215748FAF78EFF0123B2
:1059B000032207215448FAF788FF012304220D210E
:1059C0005148FAF782FF01214F48FAF7B5FE01214D
:1059D0004D48FAF7A5FE012240F207414A48FAF77E
:1059E00015FF04214848FAF778FE01214648FAF7E6
:1059F00077FE4548FAF7A3FF8DF8D0408DF8D340E5
:105A000003208DF8D1001020339033A93B48FBF7D9
:105A100031FE2020339033A93848FBF72BFE339713
:105A200033A93748FBF726FE04210220FCF7AAFB26
:105A300005210220FCF7A6FB02210120FCF7A2FBB6
:105A400034200B908DF830400C208DF831008DF80B
:105A500032500BA8FBF7D4FD4FF4A060FBF732FFE8
:105A600012208DF898008DF899508DF89A408DF895
:105A70009B5026A8FBF7F2FE8DF8989003208DF836
:105A800099008DF89A508DF89B5026A8FBF7E6FEFA
:105A90000A208DF8980003208DF899008DF89A500F
:105AA0008DF89B5026A8FBF7D9FE17208DF898009B
:105AB00003208DF899008DF89A508DF89B5026A8F8
:105AC000FBF7CCFE1C208DF898008DF899608DF8BE
:105AD0009A408DF89B5026A8FBF7C0FE43208DF816
